:100000000C9433000C9450000C9450000C9450004D
:100010000C9450000C9450000C9450000C94500020
:100020000C9450000C9450000C9466000C945000FA
:100030000C9450000C9450000C9450000C94500000
:100040000C9450000C9450000C9450000C945000F0
:100050000C945000C0F9A4B0999282F880988883DB
:10006000C6A1868EFF0011241FBECFE5D8E0DEBFFB
:10007000CDBF10E0A0E6B0E0ECEFF1E002C00590EB
:100080000D92A836B107D9F720E0A8E6B0E001C08C
:100090001D92A936B207E1F70E94EA000C94FC0019
:1000A0000C940000E4E6F0E09181908392819183CA
:1000B00093819283838328E630E090E180818F7E74
:1000C00021F491932E173F07C9F708951F920F92BD
:1000D0000FB60F9211242F933F934F935F936F931B
:1000E0007F938F939F93AF93BF93CF93EF93FF93A0
:1000F0003091680042B33C5F81E090E0BC0102C0F7
:10010000660F771F3A95E2F79B01209530952423DF
:1001100022BB73E07A95F1F70000C0B3C06F209165
:10012000680032B32C5F02C0880F991F2A95E2F74E
:10013000832B82BBE0916800F0E0E05AFF4F8081A2
:100140004C2F40954823E9F050E04130510579F0BB
:1001500090E061E070E09F5F9B01092E02C0220FDA
:10016000331F0A94E2F724173507A9F701C090E07E
:1001700080916800990F990F890F8A3010F40E94BE
:100180005200E0916800F0E0EC59FF4FE081F0E0B0
:10019000EC5AFF4FE491EBBBE0916800F0E0E05ACD
:1001A000FF4FC083809168008F5F837080936800E9
:1001B000FF91EF91CF91BF91AF919F918F917F91DF
:1001C0006F915F914F913F912F910F900FBE0F90C4
:1001D0001F9018958FEF8ABB8ABB90EF91BB82BBB3
:1001E00087BB83B78B6083BF83EC8CBF89B782608A
:0C01F00089BF78940000FECFF894FFCF88
:0801FC00FFFFFFFF10101010BF
:00000001FF
